:1000000052EF01F00C204573636F6C61204E6175F7
:1000100074696361200A4D6963726F70726F636502
:100020007361646F7232200053696D756C61646F27
:100030007220504943200000427920477275706F4A
:100040002D3034000C4D6963726F70726F6365738D
:1000500061646F7232200A2053696D756C6163614F
:100060006F205049430050696F726964612D566575
:100070006963756C6F7320002053656D2050656453
:100080006573747265000C4D6963726F70726F6393
:10009000657361646F7232200A2053696D756C61FB
:1000A00063616F205049430050696F726964612D2C
:1000B00050656465737472657320000053656D202C
:1000C00064656D6164612D76656963756C6F73003D
:1000D000EA6A0D0EE96EEF500DE0060E016E006A41
:1000E000002EFED7012EFBD77B0E006E002EFED712
:1000F000EF2EF3D712001238F00B006E0F0E8B1498
:1001000000108B6E00008B80030E006E002EFED759
:100110008B9012008250006E00380F0B016E12009F
:100120000F0E9414F009946E8B8400008B800000F5
:10013000F1DF01C012F08B9000008B8000D000D066
:100140000000E8DF01C011F08B900F0E9414946E44
:100150001238006EF00E001600501110016EB6EF4E
:1001600000F09490949294948B92DAD701C011F09D
:1001700001BEFBD78B920FB08B8200008B940000E6
:100180008B901038116E0F0E111611C012F0B3DFE4
:1001900010500F0B116E126EAEDF1200280E096E9A
:1001A0000C0E0A6E010E0B6E060E0C6E8B908B926F
:1001B0008B940F0E9414946E9490949294940F0ECA
:1001C0000D6E86DF010E086E0850030808E3030E6B
:1001D000126E91DF050E0D6E7BDF082AF5D7020E39
:1001E000126E89DF050E0D6E73DF086A0850030872
:1001F0000DE3036A0850090FE96E000E0320EA6E52
:10020000EFCF10F00F6AADDF082AF0D75BEF01F0F7
:100210000C2C01D003D0400E0D6E01D00D6A010EE2
:100220000B5C0D260D5080090E6E0F6A106E99DF63
:1002300012000A50070A07E00B0A0AE0060A10E05B
:10024000020A14E018D0010E0B6E0C6EE1DF18D01C
:100250000F6A010E106E85DF020E0D6E39DF10D0B1
:10026000010E0B6E020E0C6ED3DF0AD00F6A100E59
:10027000106E77DF05D0010E0F6E0AC010F071DF2F
:100280004CEF01F00900F5520CE0F6CF08F0F7CF83
:1002900009F0F5CF0AF0CDD708C0F6FF09C0F7FF87
:1002A000F1D71200F86AD09E076A066AC180C1823F
:1002B000C184C19673D7040EF66E000EF76EE2DFAE
:1002C000130E0B6E010E0C6EA3DF280EF66E000EE1
:1002D000F76ED8DF140E0B6E020E0C6E99DF380E1F
:1002E000F66E000EF76ECEDF960E0D6EF1DE938C7D
:1002F00081AC01D0052A959A8C8A95988C98959610
:100300008C9695948C9495928C9295908C80440EBA
:10031000F66E000EF76EB6DF110E0B6E010E0C6E50
:1003200077DF660EF66E000EF76EACDF130E0B6E07
:10033000020E0C6E6DDF780EF66E000EF76EA2DF09
:10034000320E0D6EC5DE938E81AE44D0042A320E7D
:100350000D6EBEDE959A8C9A95988C8895968C96A3
:1003600095948C9495928C9295908C80020E086E48
:10037000960E0D6EADDE082EFBD7860EF66E000EC5
:10038000F76E80DF110E0B6E010E0C6E41DFA80EB2
:10039000F66E000EF76E76DF110E0B6E020E0C6E0F
:1003A00037DFBC0EF66E000EF76E6CDF959A8C9AF6
:1003B00095988C9895968C8695948C8495928C9231
:1003C00095908C90040E086EFA0E0D6E81DE082E4C
:0803D000FBD704068CD70300E3
:020000040030CA
:0E00000000220C0E000181000FC00FE00F4027
:00000001FF
;PIC18F452
;CRC=77A9  CREATED="12-Mar-22 10:10"
